:020000040800F2
:1000000098060020CD010008F5030008F70300085A
:10001000FB030008FF0300080304000800000000C1
:1000200000000000000000000000000007040008BD
:1000300009040008000000000B0400080D0400087B
:10004000E7010008E7010008E7010008E7010008F0
:10005000E7010008E7010008E7010008E7010008E0
:10006000E7010008E7010008E7010008E7010008D0
:10007000E7010008E7010008E7010008E7010008C0
:10008000E7010008E7010008E7010008E7010008B0
:10009000E7010008E7010008E7010008E7010008A0
:1000A000E7010008E7010008E7010008E701000890
:1000B000E7010008E7010008E7010008E701000880
:1000C000E7010008E7010008E7010008E701000870
:1000D000E7010008E7010008E7010008E701000860
:1000E000E7010008E7010008E7010008E701000850
:1000F000E7010008E7010008E7010008E701000840
:10010000E7010008E7010008E7010008E70100082F
:10011000E7010008E7010008E7010008E70100081F
:10012000E7010008E7010008E7010008E70100080F
:1001300000F002F800F03AF80AA090E8000C8244BF
:100140008344AAF10107DA4501D100F02FF8AFF29C
:10015000090EBAE80F0013F0010F18BFFB1A43F0A5
:10016000010318473811000058110000103A24BF4D
:1001700078C878C1FAD8520724BF30C830C144BF0C
:1001800004680C607047000000230024002500264E
:10019000103A28BF78C1FBD8520728BF30C148BFEA
:1001A0000B6070471FB51FBD10B510BD01F03FF8C3
:1001B0001146FFF7F7FF00F003F901F05DF803B413
:1001C000FFF7F2FF03BC01F061F800000948804727
:1001D00009480047FEE7FEE7FEE7FEE7FEE7FEE729
:1001E000FEE7FEE7FEE7FEE704480549054A064B41
:1001F00070470000D9040008310100089800002071
:10020000980600209802002098020020704800788C
:1002100010B1012818D106E000206E4908600120C5
:100220006B49087000BF6B480068401C6949086052
:10023000084600686849884205D300BF0020644929
:10024000087000BF704700E000BF00BF0120F9E761
:1002500010B562480078082844D2DFE800F00408AE
:1002600028182010303801205C49087000BF682031
:1002700000F034FA10B105205849087033E06520C9
:1002800000F02CFA10B10320544908702BE06C20C8
:1002900000F024FA10B104205049087023E06C20CB
:1002A00000F01CFA10B102204C4908701BE06F20CE
:1002B00000F014FA10B106204849087013E00D2030
:1002C00000F00CFA10B10720444908700BE00A2036
:1002D00000F004FA28B100BF00204049087000BFB8
:1002E00010BD00E000BF00BF0120F9E710B53C4899
:1002F000007820B1012806D0022815D10AE001209B
:100300003749087000BFFFF7A3FF10B90220344936
:1003100008700AE0FFF77AFF28B900BF00203049D3
:10032000087000BF10BD00E000BF00BF0120F9E76A
:100330002C490988884204DB00BF20212A4A116029
:1003400005E000BF2021284A121F116000BF254987
:100350000988491C234A118011460988C1F3080104
:100360001180704710B521480088401C1F49088043
:10037000084600888005800D0FD11D480088401C6C
:1003800000B21B4908800846B0F90000A0F5807152
:10039000FF3902D10020164908801549B1F9001033
:1003A000FF3905D51249B1F90010C1F1FF0103E091
:1003B0000F49B1F90010FF3988B2FFF7B9FF10BD3E
:1003C00000F00AF903E0FFF7CDFFFFF78FFFFAE730
:1003D0000800002004000020801A06000100002010
:1003E000000000200A000020140C01400C00002036
:1003F0000E000020704700BFFEE700BFFEE700BF11
:10040000FEE700BFFEE77047704770477047000087
:1004100000210020674A126842F48032654B1A605E
:1004200000BF644A126802F40030491C10B9B1F5EB
:10043000A06FF6D15F4A126812F4003F01D001208C
:1004400000E00020012842D15B4A126842F010020D
:10045000594B1A601A46126822F003021A601A46B3
:10046000126842F002021A60524A5268514B5A60B6
:100470001A4652685A601A46526842F480625A60BC
:100480001A46526822F47C125A601A46526842F4A4
:10049000E8125A601A46126842F080721A6000BF71
:1004A000444A126812F0007FFAD0424A526822F0A1
:1004B0000302404B5A601A46526842F002025A60E8
:1004C00000BF3C4A526802F00C02082AF9D170477A
:1004D00010B5FFF79DFF10BD10B53648006840F01D
:1004E00001003449086008464068344908403149F1
:1004F000486008460068324908402E4908600846AE
:10050000006820F4802008600846406820F4FE005F
:1005100048604FF41F008860FFF7DAFF4FF000607B
:100520002849086010BD10B5002100200022214B91
:100530005B6803F00C0121B1042906D0082928D1F9
:1005400007E0214B214C236027E01F4B1F4C236009
:1005500023E0184B5B6803F47010164B5B6803F4E0
:100560008032022303EB904022B9194B4343174CCE
:1005700023600DE00F4B5B6813F4003F04D0144B75
:100580004343124C236003E00F4B43430F4C236063
:1005900003E00D4B0D4C236000BF00BF054B5B68B3
:1005A000C3F303130B4CE15C084B1B68CB40074CB7
:1005B000236010BD00100240002002400000FFF840
:1005C000FFFFF6FE08ED00E000127A0010000020A8
:1005D00000093D001400002010B500F03FF800F0C5
:1005E0001FF800F001F810BD08B50121402000F00F
:1005F000AFFB0820ADF8000003208DF80200482072
:100600008DF803006946054800F0F0F80820ADF8C1
:1006100000006946014800F0E9F808BD00180140F3
:1006200008B50121482000F093FB2020ADF8000020
:1006300003208DF8020010208DF80300694605485C
:1006400000F0D4F82020ADF800006946024800F020
:10065000CDF808BD000C01400018014000B585B080
:100660000121880300F074FB0121042000F070FBDD
:100670004FF40070ADF8100003208DF81200182020
:100680008DF8130004A9274800F0B0F84FF48060FB
:10069000ADF8100003208DF8120004208DF813002F
:1006A00004A9204800F0A2F84FF416500090002052
:1006B000ADF80400ADF80600ADF808000C20ADF868
:1006C0000A000020ADF80C006946174800F0EBFB6B
:1006D0000121154800F073FC05B000BD10B50446BB
:1006E0004021114800F046FD012801D0002010BD36
:1006F00021460D4800F0D0FC0120F8E710B5044673
:100700000CB9002010BD2021074800F033FD01285E
:1007100005D1054800F0C4FC20700120F2E700205C
:10072000F0E70000000801400038014010B5044621
:10073000CA48844208D10121042000F023FB002193
:10074000042000F01FFB46E0C548844208D1012187
:10075000082000F017FB0021082000F013FB3AE00E
:10076000C048844208D10121102000F00BFB002179
:10077000102000F007FB2EE0BB48844208D1012185
:10078000202000F0FFFA0021202000F0FBFA22E0F8
:10079000B648844208D10121402000F0F3FA00213C
:1007A000402000F0EFFA16E0B148844208D1012160
:1007B000802000F0E7FA0021802000F0E3FA0AE050
:1007C000AC48844207D10121801500F0DBFA0021FA
:1007D000A01500F0D7FA10BD10B50121084600F0B1
:1007E000D1FA0021012000F0CDFA10BD2DE9F04131
:1007F000024600250026002000230024002791F84F
:1008000003C00CF00F0591F803C01CF0100F03D0CB
:1008100091F802C04CEA050591F800C0BCF1000F48
:1008200031D0146800202BE04FF0010C0CFA00F3DB
:10083000B1F800C00CEA03069E4220D183004FF0BD
:100840000F0C0CFA03F7BC4305FA03FC4CEA040452
:1008500091F803C0BCF1280F06D14FF0010C0CFA3F
:1008600000FCC2F814C00AE091F803C0BCF1480FC4
:1008700005D14FF0010C0CFA00FCC2F810C0401C6E
:100880000828D1D31460B1F800C0BCF1FF0F34DDEB
:10089000546800202EE000F1080C4FF0010808FA1F
:1008A0000CF3B1F800C00CEA03069E4221D183008C
:1008B0004FF00F0C0CFA03F7BC4305FA03FC4CEAAB
:1008C000040491F803C0BCF1280F05D100F1080C15
:1008D00008FA0CF8C2F8148091F803C0BCF1480F74
:1008E00007D100F1080C4FF0010808FA0CF8C2F823
:1008F0001080401C0828CED35460BDE8F0814FF62C
:10090000FF710180022181700421C170704702468D
:10091000002093680B4201D0012000E000207047C6
:100920000146886880B2704702460020D3680B42B7
:1009300001D0012000E0002070470146C86880B265
:10094000704701617047416170470AB1016100E081
:1009500041617047C16070474FF480320A43826141
:100960008161826182698269704702460020424B40
:1009700018684FF68073184040EA021008433E4B57
:10098000186070473D49C8617047F0B50A460023BA
:1009900000240021002500F00046B6F1004F02D1EE
:1009A000354EF16901E0344E7168C0F3034583B2FE
:1009B00000F44016B6F5401F08D121F070612E4EAC
:1009C000766826F070662C4F7E6012E000F4801688
:1009D000B6F5801F06D1032606FA05F4A14341F0BF
:1009E000706106E0460D360103FA06F6B14341F0A8
:1009F000706122B1460D360103FA06F6314300F06C
:100A00000046B6F1004F02D11B4EF16101E01A4ED3
:100A10007160F0BD30B500228B071C0F0F2303FA65
:100A200004F2154B08338C1053F824309343124CC6
:100A300008348D1044F8253023468C1053F82430A8
:100A40008C07240F00FA04F423430B4C08348D1058
:100A500044F8253030BD0A4908607047000801405D
:100A6000000C01400010014000140140001801403A
:100A7000001C014000200140000001400000204215
:100A8000DC002042DB48006840F00100D9490860E2
:100A900008464068D8490840D6494860084600687A
:100AA000D6490840D34908600846006820F48020F1
:100AB00008600846406820F4FE0048604FF41F00BC
:100AC00088607047CB49096821F48031C94A1160B8
:100AD0001146096821F480211160B0F5803F03D0F0
:100AE000B0F5802F0ED106E0C249096841F480318B
:100AF000C04A116007E0BF49096841F4A021BD4A1E
:100B0000116000E000BF00BF704710B50146002231
:100B1000002300204A11012A02D1B64C236806E0C6
:100B2000022A02D1B34C236A01E0B24C636A01F09D
:100B30001F02012494401C4201D0012000E000204B
:100B400010BD70B500240025002600BF3120FFF73E
:100B5000DCFF0646641CB4F5A06F01D0002EF5D072
:100B60003120FFF7D2FF08B1012500E0002528461B
:100B700070BD014600209F4A106820F0F80040EA4E
:100B8000C100106070479E4908607047024600200F
:100B9000984B586820F47C1042EA01031843954BA7
:100BA0005860704796490866704701460020914A90
:100BB000506820F003000843506070478D4840683B
:100BC00000F00C007047014600208A4A506820F06F
:100BD000F00008435060704701460020854A506885
:100BE00020F4E06008435060704701460020814ACD
:100BF000506820F4605040EAC1005060704729B14D
:100C00007C4A527A02437B4B5A7204E0794A527A08
:100C10008243784B5A7270477A49086070470146A0
:100C20000020744A506820F44040084350607047E8
:100C30000021754A11706F4A82F82010012802D0F5
:100C4000042808D103E001216F4A117004E0052156
:100C50006D4A117000E000BF00BF70476B4908602B
:100C600070476449096A0143624A116270476749E3
:100C700044390860704730B5002100220024002369
:100C80005C4D6D6805F00C0121B1042905D00829DF
:100C900023D105E05E4D056022E05D4D05601FE05B
:100CA000544D6D6805F47012524D6D6805F4803432
:100CB000022505EB92421CB9564D554305600BE0E9
:100CC0004C4D6D6815F4003F03D0524D55430560FF
:100CD00002E04F4D5543056002E04D4D056000BFF9
:100CE00000BF444D6D6805F0F00109094A4D6B5C89
:100CF0000568DD4045603F4D6D6805F4E061090A17
:100D0000454D6B5C4568DD4085603A4D6D6805F486
:100D10006051C90A404D6B5C4568DD40C560354D8A
:100D20006D6805F44041890B3C4D6B5CC568B5FBB3
:100D3000F3F5056130BD29B12E4A526902432D4BAE
:100D40005A6104E02B4A526982432A4B5A61704728
:100D500029B1284A92690243264B9A6104E0254A48
:100D600092698243234B9A61704729B1214AD26923
:100D70000243204BDA6104E01E4AD26982431D4BD4
:100D8000DA61704729B11B4AD2680243194BDA6015
:100D900004E0184AD2688243164BDA60704729B1E2
:100DA000144A12690243134B1A6104E0114A126992
:100DB0008243104B1A6170471449403908607047EC
:100DC0000F49C86470470B49C87170470948406AA9
:100DD00040F0807007494862704701460020054A8C
:100DE00092680A4201D0012000E0002070470149CA
:100DF00088727047001002400000FFF8FFFFF6FE07
:100E000000004242D8004242201002408004424288
:100E100000127A0000093D00240000203400002068
:100E200010B50446FB48844209D101218803FFF72D
:100E3000A9FF00214FF48040FFF7A4FF32E0F648FD
:100E4000844209D101214804FFF7A9FF00214FF492
:100E50000030FFF7A4FF25E0F048844209D10121CA
:100E60008804FFF79CFF00214FF48020FFF797FFD5
:100E700018E0EB48844209D10121C804FFF78FFF35
:100E800000214FF40020FFF78AFF0BE0E548844281
:100E900008D101210805FFF782FF00214FF48010DF
:100EA000FFF77DFF10BD2DE9F04786B005460E46E1
:100EB0000024A24600BFA1460027B08900B100BFB0
:100EC0002F462C8A4CF6FF700440F08804432C8295
:100ED000AC894EF6F3100440B0883189084371891B
:100EE00008430443AC81AC8A4FF6FF400440B0890C
:100EF0000443AC8201A8FFF7BEFEC648874202D178
:100F0000DDF810A001E0DDF80CA0A88910F4004F76
:100F100008D00AEBCA0000EB0A1031684900B0FBA8
:100F2000F1F807E00AEBCA0000EB0A10316889000B
:100F3000B0FBF1F86420B8FBF0F004012009642153
:100F400001FB1089A88910F4004F08D0322000EB73
:100F5000C900B0FBF1F000F00700044308E03220C4
:100F600000EB09106421B0FBF1F000F00F00044326
:100F70002C8106B0BDE8F0874FF4165101600021C6
:100F80008180C18001810C214181002181817047D4
:100F900010B502460020108A4FF2FF0318400B885C
:100FA0004C8823438C882343CC88234318431082E6
:100FB00010BD0021018041808180C180704721B136
:100FC000828942F40052828104E082894DF6FF73E7
:100FD0001A4082817047F0B50346002400260025A0
:100FE0000020A1F510676A3F00D100BF1846C1F389
:100FF000421401F01F06012707FA06F5012C01D162
:101000000C3004E0022C01D1103000E014301AB191
:1010100007682F43076002E00768AF430760F0BD31
:101020001AB1838A0B43838202E0838A8B438382D3
:101030007047028A4FF6F0731A400282028A0A430E
:101040000282704782894FF2FF731A40828182893F
:101050000A438281704721B1828942F00202828173
:1010600004E082894FF6FD731A4082817047028A3C
:101070004FF6DF731A400282028A0A4302827047E7
:1010800021B1028A42F48042028204E0028A4BF6D5
:10109000FF731A4002827047C1F3080282807047D2
:1010A00001468888C0F308007047818941F001013A
:1010B00081817047028BD2B20283028B42EA012205
:1010C00002837047028B02F47F420283028B0A4341
:1010D0000283704721B1828A42F02002828204E0BA
:1010E000828A4FF6DF731A408282704721B1828A6A
:1010F00042F01002828204E0828A4FF6EF731A40B7
:101100008282704721B1828A42F00802828204E022
:10111000828A4FF6F7731A408282704721B1828922
:1011200042F40042828103E08289C2F30E0282818E
:10113000704721B1828A42F40062828204E0828A8E
:101140004FF2FF731A4082827047828A4FF6FB7318
:101150001A408282828A0A438282704721B1828A3F
:1011600042F00202828204E0828A4FF6FD731A4046
:101170008282704702460020B1F5007F00D100BF97
:1011800013880B4201D0012000E00020704701F4D9
:101190000072B2F5007F00D100BFCA4302807047E1
:1011A00070B502460024002300250020A1F510663A
:1011B0006A3E00D100BFC1F3421501F01F030126B2
:1011C00006FA03F3012D02D19689334006E0022D81
:1011D00002D1168A334001E0968A33400C12012670
:1011E00006FA04F41688344013B10CB1012000E073
:1011F000002070BD10B500220023A1F510646A3CE8
:1012000000D100BF0A1201249440A3B2DC43048041
:1012100010BD00000038014000440040004800407C
:10122000004C0040005000407047704770477546C2
:1012300000F028F8AE4605006946534620F0070046
:10124000854618B020B5FEF7CFFFBDE820404FF02F
:1012500000064FF000074FF000084FF0000B21F0A0
:101260000701AC46ACE8C009ACE8C009ACE8C0096D
:10127000ACE8C0098D4670470446AFF300802046B5
:10128000FEF79DFF004870473800002001491820F4
:10129000ABBEFEE72600020070470000BC1200084B
:1012A00000000020380000006C010008F412000863
:1012B00038000020600600008801000800000000DF
:1012C00000000000000000000000FF0000A24A042F
:1012D00000000000000000000102030406070809E6
:1012E00000000000010203040102030406070809CC
:0412F00002040608E6
:0400000508000131BD
:00000001FF
